{
  "_format": "hh-sol-artifact-1",
  "contractName": "RampConversion",
  "sourceName": "contracts/RampConversion.sol",
  "abi": [
    {
      "inputs": [
        {
          "internalType": "address",
          "name": "_ipToken",
          "type": "address"
        },
        {
          "internalType": "address",
          "name": "_usdc",
          "type": "address"
        }
      ],
      "stateMutability": "nonpayable",
      "type": "constructor"
    },
    {
      "inputs": [
        {
          "internalType": "uint256",
          "name": "usdcAmount",
          "type": "uint256"
        }
      ],
      "name": "convertUSDCToIP",
      "outputs": [],
      "stateMutability": "nonpayable",
      "type": "function"
    },
    {
      "inputs": [],
      "name": "ipToken",
      "outputs": [
        {
          "internalType": "address",
          "name": "",
          "type": "address"
        }
      ],
      "stateMutability": "view",
      "type": "function"
    },
    {
      "inputs": [
        {
          "internalType": "address",
          "name": "",
          "type": "address"
        }
      ],
      "name": "lastConversion",
      "outputs": [
        {
          "internalType": "uint256",
          "name": "",
          "type": "uint256"
        }
      ],
      "stateMutability": "view",
      "type": "function"
    },
    {
      "inputs": [],
      "name": "owner",
      "outputs": [
        {
          "internalType": "address",
          "name": "",
          "type": "address"
        }
      ],
      "stateMutability": "view",
      "type": "function"
    },
    {
      "inputs": [],
      "name": "usdc",
      "outputs": [
        {
          "internalType": "address",
          "name": "",
          "type": "address"
        }
      ],
      "stateMutability": "view",
      "type": "function"
    }
  ],
  "bytecode": "0x608060405234801561001057600080fd5b506040516108783803806108788339818101604052810190610032919061015e565b336000806101000a81548173ffffffffffffffffffffffffffffffffffffffff021916908373ffffffffffffffffffffffffffffffffffffffff16021790555081600160006101000a81548173ffffffffffffffffffffffffffffffffffffffff021916908373ffffffffffffffffffffffffffffffffffffffff16021790555080600260006101000a81548173ffffffffffffffffffffffffffffffffffffffff021916908373ffffffffffffffffffffffffffffffffffffffff160217905550505061019e565b600080fd5b600073ffffffffffffffffffffffffffffffffffffffff82169050919050565b600061012b82610100565b9050919050565b61013b81610120565b811461014657600080fd5b50565b60008151905061015881610132565b92915050565b60008060408385031215610175576101746100fb565b5b600061018385828601610149565b925050602061019485828601610149565b9150509250929050565b6106cb806101ad6000396000f3fe608060405234801561001057600080fd5b50600436106100575760003560e01c806329cea5321461005c5780633e413bee146100785780636ce4248b146100965780638da5cb5b146100c6578063ba35971e146100e4575b600080fd5b610076600480360381019061007191906103e4565b610102565b005b610080610317565b60405161008d9190610452565b60405180910390f35b6100b060048036038101906100ab9190610499565b61033d565b6040516100bd91906104d5565b60405180910390f35b6100ce610355565b6040516100db9190610452565b60405180910390f35b6100ec610379565b6040516100f99190610452565b60405180910390f35b603c600360003373ffffffffffffffffffffffffffffffffffffffff1673ffffffffffffffffffffffffffffffffffffffff168152602001908152602001600020544261014f919061051f565b1015610190576040517f08c379a0000000000000000000000000000000000000000000000000000000008152600401610187906105b0565b60405180910390fd5b600061019b8261039f565b905042600360003373ffffffffffffffffffffffffffffffffffffffff1673ffffffffffffffffffffffffffffffffffffffff16815260200190815260200160002081905550600260009054906101000a900473ffffffffffffffffffffffffffffffffffffffff1673ffffffffffffffffffffffffffffffffffffffff166323b872dd3330856040518463ffffffff1660e01b8152600401610240939291906105d0565b6020604051808303816000875af115801561025f573d6000803e3d6000fd5b505050506040513d601f19601f82011682018060405250810190610283919061063f565b50600160009054906101000a900473ffffffffffffffffffffffffffffffffffffffff1673ffffffffffffffffffffffffffffffffffffffff166340c10f1933836040518363ffffffff1660e01b81526004016102e192919061066c565b600060405180830381600087803b1580156102fb57600080fd5b505af115801561030f573d6000803e3d6000fd5b505050505050565b600260009054906101000a900473ffffffffffffffffffffffffffffffffffffffff1681565b60036020528060005260406000206000915090505481565b60008054906101000a900473ffffffffffffffffffffffffffffffffffffffff1681565b600160009054906101000a900473ffffffffffffffffffffffffffffffffffffffff1681565b6000819050919050565b600080fd5b6000819050919050565b6103c1816103ae565b81146103cc57600080fd5b50565b6000813590506103de816103b8565b92915050565b6000602082840312156103fa576103f96103a9565b5b6000610408848285016103cf565b91505092915050565b600073ffffffffffffffffffffffffffffffffffffffff82169050919050565b600061043c82610411565b9050919050565b61044c81610431565b82525050565b60006020820190506104676000830184610443565b92915050565b61047681610431565b811461048157600080fd5b50565b6000813590506104938161046d565b92915050565b6000602082840312156104af576104ae6103a9565b5b60006104bd84828501610484565b91505092915050565b6104cf816103ae565b82525050565b60006020820190506104ea60008301846104c6565b92915050565b7f4e487b7100000000000000000000000000000000000000000000000000000000600052601160045260246000fd5b600061052a826103ae565b9150610535836103ae565b925082820390508181111561054d5761054c6104f0565b5b92915050565b600082825260208201905092915050565b7f436f6f6c646f776e3a20776169742031206d696e000000000000000000000000600082015250565b600061059a601483610553565b91506105a582610564565b602082019050919050565b600060208201905081810360008301526105c98161058d565b9050919050565b60006060820190506105e56000830186610443565b6105f26020830185610443565b6105ff60408301846104c6565b949350505050565b60008115159050919050565b61061c81610607565b811461062757600080fd5b50565b60008151905061063981610613565b92915050565b600060208284031215610655576106546103a9565b5b60006106638482850161062a565b91505092915050565b60006040820190506106816000830185610443565b61068e60208301846104c6565b939250505056fea2646970667358221220f507fb0c4226da39d730e356dc03d692cf667d5bd9750f8a5e4b855b35c4f61664736f6c634300081c0033",
  "linkReferences": {},
  "deployedLinkReferences": {}
}